{
  "contractName": "hotel",
  "abi": [
    {
      "constant": false,
      "inputs": [
        {
          "internalType": "address",
          "name": "customer",
          "type": "address"
        },
        {
          "internalType": "string",
          "name": "name",
          "type": "string"
        },
        {
          "internalType": "string",
          "name": "email",
          "type": "string"
        },
        {
          "internalType": "string",
          "name": "phone",
          "type": "string"
        },
        {
          "internalType": "uint256",
          "name": "room",
          "type": "uint256"
        },
        {
          "internalType": "uint256",
          "name": "adult",
          "type": "uint256"
        },
        {
          "internalType": "uint256",
          "name": "date",
          "type": "uint256"
        },
        {
          "internalType": "uint256",
          "name": "month",
          "type": "uint256"
        },
        {
          "internalType": "uint256",
          "name": "year",
          "type": "uint256"
        },
        {
          "internalType": "string",
          "name": "message",
          "type": "string"
        }
      ],
      "name": "bookRoom",
      "outputs": [],
      "payable": false,
      "stateMutability": "nonpayable",
      "type": "function"
    },
    {
      "constant": true,
      "inputs": [],
      "name": "viewRooms",
      "outputs": [
        {
          "internalType": "address[]",
          "name": "",
          "type": "address[]"
        },
        {
          "internalType": "string[]",
          "name": "",
          "type": "string[]"
        },
        {
          "internalType": "string[]",
          "name": "",
          "type": "string[]"
        },
        {
          "internalType": "string[]",
          "name": "",
          "type": "string[]"
        },
        {
          "internalType": "uint256[]",
          "name": "",
          "type": "uint256[]"
        },
        {
          "internalType": "uint256[]",
          "name": "",
          "type": "uint256[]"
        },
        {
          "internalType": "uint256[]",
          "name": "",
          "type": "uint256[]"
        },
        {
          "internalType": "uint256[]",
          "name": "",
          "type": "uint256[]"
        },
        {
          "internalType": "uint256[]",
          "name": "",
          "type": "uint256[]"
        },
        {
          "internalType": "string[]",
          "name": "",
          "type": "string[]"
        }
      ],
      "payable": false,
      "stateMutability": "view",
      "type": "function"
    }
  ],
  "bytecode": "0x608060405234801561001057600080fd5b50610fe5806100206000396000f3fe608060405234801561001057600080fd5b50600436106100365760003560e01c80630bd074591461003b5780632d0abb8c14610062575b600080fd5b61004361007e565b6040516100599a99989796959493929190610ce3565b60405180910390f35b61007c600480360361007791908101906109dc565b61066f565b005b60608060608060608060608060608060006001600260036004600560066007600860098980548060200260200160405190810160405280929190818152602001828054801561012257602002820191906000526020600020905b8160009054906101000a900473ffffffffffffffffffffffffffffffffffffffff1673ffffffffffffffffffffffffffffffffffffffff16815260200190600101908083116100d8575b5050505050995088805480602002602001604051908101604052809291908181526020016000905b82821015610206578382906000526020600020018054600181600116156101000203166002900480601f0160208091040260200160405190810160405280929190818152602001828054600181600116156101000203166002900480156101f25780601f106101c7576101008083540402835291602001916101f2565b820191906000526020600020905b8154815290600101906020018083116101d557829003601f168201915b50505050508152602001906001019061014a565b50505050985087805480602002602001604051908101604052809291908181526020016000905b828210156102e9578382906000526020600020018054600181600116156101000203166002900480601f0160208091040260200160405190810160405280929190818152602001828054600181600116156101000203166002900480156102d55780601f106102aa576101008083540402835291602001916102d5565b820191906000526020600020905b8154815290600101906020018083116102b857829003601f168201915b50505050508152602001906001019061022d565b50505050975086805480602002602001604051908101604052809291908181526020016000905b828210156103cc578382906000526020600020018054600181600116156101000203166002900480601f0160208091040260200160405190810160405280929190818152602001828054600181600116156101000203166002900480156103b85780601f1061038d576101008083540402835291602001916103b8565b820191906000526020600020905b81548152906001019060200180831161039b57829003601f168201915b505050505081526020019060010190610310565b5050505096508580548060200260200160405190810160405280929190818152602001828054801561041d57602002820191906000526020600020905b815481526020019060010190808311610409575b505050505095508480548060200260200160405190810160405280929190818152602001828054801561046f57602002820191906000526020600020905b81548152602001906001019080831161045b575b50505050509450838054806020026020016040519081016040528092919081815260200182805480156104c157602002820191906000526020600020905b8154815260200190600101908083116104ad575b505050505093508280548060200260200160405190810160405280929190818152602001828054801561051357602002820191906000526020600020905b8154815260200190600101908083116104ff575b505050505092508180548060200260200160405190810160405280929190818152602001828054801561056557602002820191906000526020600020905b815481526020019060010190808311610551575b5050505050915080805480602002602001604051908101604052809291908181526020016000905b82821015610649578382906000526020600020018054600181600116156101000203166002900480601f0160208091040260200160405190810160405280929190818152602001828054600181600116156101000203166002900480156106355780601f1061060a57610100808354040283529160200191610635565b820191906000526020600020905b81548152906001019060200180831161061857829003601f168201915b50505050508152602001906001019061058d565b505050509050995099509950995099509950995099509950995090919293949596979899565b60008a90806001815401808255809150509060018203906000526020600020016000909192909190916101000a81548173ffffffffffffffffffffffffffffffffffffffff021916908373ffffffffffffffffffffffffffffffffffffffff1602179055505060018990806001815401808255809150509060018203906000526020600020016000909192909190915090805190602001906107129291906108b9565b505060028890806001815401808255809150509060018203906000526020600020016000909192909190915090805190602001906107519291906108b9565b505060038790806001815401808255809150509060018203906000526020600020016000909192909190915090805190602001906107909291906108b9565b50506004869080600181540180825580915050906001820390600052602060002001600090919290919091505550600585908060018154018082558091505090600182039060005260206000200160009091929091909150555060068490806001815401808255809150509060018203906000526020600020016000909192909190915055506007839080600181540180825580915050906001820390600052602060002001600090919290919091505550600882908060018154018082558091505090600182039060005260206000200160009091929091909150555060098190806001815401808255809150509060018203906000526020600020016000909192909190915090805190602001906108ab9291906108b9565b505050505050505050505050565b828054600181600116156101000203166002900490600052602060002090601f016020900481019282601f106108fa57805160ff1916838001178555610928565b82800160010185558215610928579182015b8281111561092757825182559160200191906001019061090c565b5b5090506109359190610939565b5090565b61095b91905b8082111561095757600081600090555060010161093f565b5090565b90565b60008135905061096d81610f74565b92915050565b600082601f83011261098457600080fd5b813561099761099282610df2565b610dc5565b915080825260208301602083018583830111156109b357600080fd5b6109be838284610f21565b50505092915050565b6000813590506109d681610f8b565b92915050565b6000806000806000806000806000806101408b8d0312156109fc57600080fd5b6000610a0a8d828e0161095e565b9a505060208b013567ffffffffffffffff811115610a2757600080fd5b610a338d828e01610973565b99505060408b013567ffffffffffffffff811115610a5057600080fd5b610a5c8d828e01610973565b98505060608b013567ffffffffffffffff811115610a7957600080fd5b610a858d828e01610973565b9750506080610a968d828e016109c7565b96505060a0610aa78d828e016109c7565b95505060c0610ab88d828e016109c7565b94505060e0610ac98d828e016109c7565b935050610100610adb8d828e016109c7565b9250506101208b013567ffffffffffffffff811115610af957600080fd5b610b058d828e01610973565b9150509295989b9194979a5092959850565b6000610b238383610b5b565b60208301905092915050565b6000610b3b8383610c9b565b905092915050565b6000610b4f8383610cd4565b60208301905092915050565b610b6481610ee5565b82525050565b6000610b7582610e4e565b610b7f8185610ea1565b9350610b8a83610e1e565b8060005b83811015610bbb578151610ba28882610b17565b9750610bad83610e7a565b925050600181019050610b8e565b5085935050505092915050565b6000610bd382610e59565b610bdd8185610eb2565b935083602082028501610bef85610e2e565b8060005b85811015610c2b5784840389528151610c0c8582610b2f565b9450610c1783610e87565b925060208a01995050600181019050610bf3565b50829750879550505050505092915050565b6000610c4882610e64565b610c528185610ec3565b9350610c5d83610e3e565b8060005b83811015610c8e578151610c758882610b43565b9750610c8083610e94565b925050600181019050610c61565b5085935050505092915050565b6000610ca682610e6f565b610cb08185610ed4565b9350610cc0818560208601610f30565b610cc981610f63565b840191505092915050565b610cdd81610f17565b82525050565b6000610140820190508181036000830152610cfe818d610b6a565b90508181036020830152610d12818c610bc8565b90508181036040830152610d26818b610bc8565b90508181036060830152610d3a818a610bc8565b90508181036080830152610d4e8189610c3d565b905081810360a0830152610d628188610c3d565b905081810360c0830152610d768187610c3d565b905081810360e0830152610d8a8186610c3d565b9050818103610100830152610d9f8185610c3d565b9050818103610120830152610db48184610bc8565b90509b9a5050505050505050505050565b6000604051905081810181811067ffffffffffffffff82111715610de857600080fd5b8060405250919050565b600067ffffffffffffffff821115610e0957600080fd5b601f19601f8301169050602081019050919050565b6000819050602082019050919050565b6000819050602082019050919050565b6000819050602082019050919050565b600081519050919050565b600081519050919050565b600081519050919050565b600081519050919050565b6000602082019050919050565b6000602082019050919050565b6000602082019050919050565b600082825260208201905092915050565b600082825260208201905092915050565b600082825260208201905092915050565b600082825260208201905092915050565b6000610ef082610ef7565b9050919050565b600073ffffffffffffffffffffffffffffffffffffffff82169050919050565b6000819050919050565b82818337600083830152505050565b60005b83811015610f4e578082015181840152602081019050610f33565b83811115610f5d576000848401525b50505050565b6000601f19601f8301169050919050565b610f7d81610ee5565b8114610f8857600080fd5b50565b610f9481610f17565b8114610f9f57600080fd5b5056fea365627a7a7231582080975a94ec9c1f9ba7f8dd08e17cf07760382377c9da196cbe7cee995a4accff6c6578706572696d656e74616cf564736f6c63430005100040",
  "source": "// SPDX-License-Identifier: MIT\r\npragma experimental ABIEncoderV2;\r\npragma solidity >=0.4.22 <0.9.0;\r\n\r\ncontract hotel {\r\n\r\n  address[] _customers;\r\n  string[] _names;\r\n  string[] _emails;\r\n  string[] _phones;\r\n  uint[] _rooms;\r\n  uint[] _adults;\r\n  uint[] _dates;\r\n  uint[] _months;\r\n  uint[] _years;\r\n  string[] _messages;\r\n  \r\n  function bookRoom(address customer,string memory name, string memory email, string memory phone, uint room, uint adult, uint date, uint month, uint year, string memory message) public {\r\n\r\n    _customers.push(customer);\r\n    _names.push(name);\r\n    _emails.push(email);\r\n    _phones.push(phone);\r\n    _rooms.push(room);\r\n    _adults.push(adult);\r\n    _dates.push(date);\r\n    _months.push(month);\r\n    _years.push(year);\r\n    _messages.push(message);\r\n  }\r\n\r\n  function viewRooms() public view returns (address[] memory, string[] memory, string[] memory, string[] memory, uint[] memory, uint[] memory, uint[] memory, uint[] memory, uint[] memory, string[] memory) {\r\n    return(_customers,_names,_emails,_phones,_rooms,_adults,_dates,_months,_years,_messages);\r\n  }\r\n}\r\n",
  "sourcePath": "C:\\Users\\Duddu Navya\\book-hotels-using-blockchain\\contracts\\hotel.sol",
  "compiler": {
    "name": "solc",
    "version": "0.5.16+commit.9c3226ce.Emscripten.clang"
  },
  "schemaVersion": "3.4.7",
  "updatedAt": "2022-07-23T05:08:44.496Z",
  "networkType": "ethereum",
  "devdoc": {
    "methods": {}
  },
  "userdoc": {
    "methods": {}
  }
}